{"hex":"01000000010000000000000000000000000000000000000000000000000000000000000000ffffffff05028f110101ffffffff020010a5d4e80000002321028ae82f58d1e8c334411fb2232cbfb1ada81777dd4350b38055670efe97046efaac0000000000000000266a24aa21a9ede2f61c3f71d1defd3fa999dfa36953755c690689799962b48bebd836974e8cf900000000","value":{"id":"799b985c00bfb2acbd5f29308c602746c5fcde7c51f0d3c9d51ef83480f740f4","version":1,"txInCount":1,"txIns":[{"previousOutput":{"hash":"0000000000000000000000000000000000000000000000000000000000000000","index":"ffffffff"},"script":"028f110101","sequence":4294967295}],"txOutCount":2,"txOuts":[{"value":1000000000000,"pkScriptSize":35,"pkScript":{"type":"Buffer","data":[33,2,138,232,47,88,209,232,195,52,65,31,178,35,44,191,177,173,168,23,119,221,67,80,179,128,85,103,14,254,151,4,110,250,172]}},{"value":0,"pkScriptSize":38,"pkScript":{"type":"Buffer","data":[106,36,170,33,169,237,226,246,28,63,113,209,222,253,63,169,153,223,163,105,83,117,92,105,6,137,121,153,98,180,139,235,216,54,151,78,140,249]}}],"locktime":0,"size":147}}