{
  "status" : "success",
  "data" : {
    "network" : "DOGE",
    "txid" : "dabac2630ddc185df3fb391975285d5b3288accb11ddb77fe719940e685364d3",
    "blockhash" : "7415537e750594b8c19db6cabf160739ae8a65ff1dc6940797d3f6a2d9a24e1a",
    "block_no" : 2325722,
    "confirmations" : 1,
    "time" : 1532954659,
    "version" : 1,
    "locktime" : 0,
    "sent_value" : "3391.71962490",
    "fee" : "0.45200000",
    "inputs" : [
      {
        "input_no" : 0,
        "address" : "DEKdsNYMTyVa9LE6tbjrugoXZ9ThMjfo5q",
        "value" : "3391.71962490",
        "received_from" : {
          "txid" : "f49ef71ab9b76571396685218a1d9f6ea899fc7488bd7a86a553bf325a893aa1",
          "output_no" : 1
        },
        "script_asm" : "30440220371b833efdfb3dde52d635a0d08d672b719446cfdfc22e6080e178638eeb709202204bcb3d3ef41c3c2ad3bc899474456720fe1fcee7664855c612ce359b5000221b01 025c79aa91e894cfe57cf393d70234d18d2a3d0a02c6e7237a595bec793e140c0d",
        "script_hex" : "4730440220371b833efdfb3dde52d635a0d08d672b719446cfdfc22e6080e178638eeb709202204bcb3d3ef41c3c2ad3bc899474456720fe1fcee7664855c612ce359b5000221b0121025c79aa91e894cfe57cf393d70234d18d2a3d0a02c6e7237a595bec793e140c0d",
        "witness" : null
      }
    ],
    "outputs" : [
      {
        "output_no" : 0,
        "address" : "DEYFjx2Ph4T4QGwrbrdXeYMpPmr2tntcQa",
        "value" : "1000.00000000",
        "type" : "pubkeyhash",
        "req_sigs" : 1,
        "spent" : null,
        "script_asm" : "OP_DUP OP_HASH160 671a6158a87e1eaf59c7f6072ce45d222138c94f OP_EQUALVERIFY OP_CHECKSIG",
        "script_hex" : "76a914671a6158a87e1eaf59c7f6072ce45d222138c94f88ac"
      },
      {
        "output_no" : 1,
        "address" : "D7XE2m7ymZa8U2JXdNmhMQHXUzQS1ojd6n",
        "value" : "2391.26762490",
        "type" : "pubkeyhash",
        "req_sigs" : 1,
        "spent" : null,
        "script_asm" : "OP_DUP OP_HASH160 1a1fa800a220a2c3feb49acba1a4a9dcc9459ba6 OP_EQUALVERIFY OP_CHECKSIG",
        "script_hex" : "76a9141a1fa800a220a2c3feb49acba1a4a9dcc9459ba688ac"
      }
    ],
    "tx_hex" : "0100000001a13a895a32bf53a5867abd8874fc99a86e9f1d8a218566397165b7b91af79ef4010000006a4730440220371b833efdfb3dde52d635a0d08d672b719446cfdfc22e6080e178638eeb709202204bcb3d3ef41c3c2ad3bc899474456720fe1fcee7664855c612ce359b5000221b0121025c79aa91e894cfe57cf393d70234d18d2a3d0a02c6e7237a595bec793e140c0dffffffff0200e87648170000001976a914671a6158a87e1eaf59c7f6072ce45d222138c94f88acfad310ad370000001976a9141a1fa800a220a2c3feb49acba1a4a9dcc9459ba688ac00000000"
  },
  "code" : 200,
  "message" : ""
}
